:100000000C943D010C945A010C945A010C945A0121
:100010000C945A010C945A010C945A010C945A01F4
:100020000C945A010C945A010C94F11B0C94C41CAE
:100030000C941E170C945A010C945A010C945A01FA
:100040000C945A010C945A010C945A010C945A01C4
:100050000C945A010C94A5170C945A010C945A0153
:100060000C945A010C945A010C945A010C945A01A4
:100070000C945A010C945A010C945A010C945A0194
:100080000C945A010C945A010C945A010C945A0184
:100090000C945A010C945A010C945A010C945A0174
:1000A0000C945A010C945A010C945A011C0017002C
:1000B000150014001A0008002B000B000A000900AC
:1000C00004001600070039001100050019001D008A
:1000D0001B000600E1002C002C002C00E200E300D5
:1000E000E00000002A03680061006E0064007700F1
:1000F00069007200650064002F00740065006B00E9
:100100006E006F0062006F0061007200640000000A
:100110001C034E0069006B006F00200054006F004C
:100120007200760069006E0065006E000000040336
:10013000090409023B00020100A0FA0904000001C1
:10014000030101000921110100012244000705817A
:100150000308000109040100010300000009211146
:1001600001000122B60007058203200001120100F0
:100170000200000008EDFE00000001010200010580
:10018000010902A10185020901A10005091901293E
:10019000081500250195087501810205010930093E
:1001A000311581257F95027508810609381581254D
:1001B0007F950175088106050C0A38021581257F97
:1001C000950175088106C0C005010980A10185035C
:1001D00019012AB700150126B70095017510810095
:1001E000C0050C0901A101850419012AA00215010D
:1001F00026A002950175108100C005010906A10124
:100200008506050719E029E7150025019508750100
:1002100081020507190029EF1500250195F07501E8
:1002200081020508190129059505750191029501BD
:1002300075039101C005010906A101050719E0290F
:10024000E715002501950875018102950175088162
:10025000010507190029FF150026FF0095067508FE
:10026000810005081901290515002501950575016D
:100270009102950175039101C00011241FBECFEFBB
:10028000DAE0DEBFCDBF11E0A0E0B1E0E6E2FFE3DF
:1002900002C005900D92A239B107D9F722E0A2E978
:1002A000B1E001C01D92A139B207E1F70E948B10A5
:1002B0000C943F1F0C940000811112C0643080F434
:1002C000473070F4E42FF0E087E0689FE00DF11D07
:1002D0001124EE0FFF1FE455FF4F8591949108956F
:1002E00081E090E008950E945C01089581E0089506
:1002F0000E947601089581E0089581E008950E94AA
:100300007D01089508950E9482010895A6E0B0E05D
:10031000ECE8F1E00C949B1E49835A839E83309154
:10032000990189819A8131111AC03E81311599F064
:10033000211589F00E944807182F682F89819A811A
:100340000E94240769817A81812F0E94340E2696AB
:10035000E3E00C94B71E0E943607182FF3CF0E94DB
:10036000480769817A81F1CFFC01262F40815181B4
:1003700062817381848195810E9486010895CF9363
:10038000DF93D82FC92F61E00E94B4016D2F7C2F1D
:100390000E947801DF91CF910895CF93DF93D82FFA
:1003A000C92F60E00E94B4016D2F7C2F0E94830151
:1003B000DF91CF91089521E030E0A90102C0440F00
:1003C000551F8A95E2F7CA010E9446060895CF9309
:1003D000C82F81E090E00C2E02C0880F991F0A946C
:1003E000E2F70E94A50B8C2F0E94DB01CF910895AC
:1003F00081E008950E94F8010895CF93C82F0E94CC
:10040000F0058C2F0E94FA012FEF84E39CE021502D
:1004100080409040E1F700C00000CF91089581E056
:100420000E94FD010E94C917089580E00E94FD010D
:100430000E94DA1708950F931F93CF93DF938C01D7
:1004400061E00E94B401EC01B8010E947F018115B6
:10045000E1F1B801CE010E949C148115B1F1B801FF
:10046000CE010E94F110811581F1B801CE010E94E8
:10047000C610811551F1B801CE010E94370F8115C8
:1004800021F1F8018581811581F0CA35FCE7DF078C
:1004900039F178F4C130ECE7DE07F9F0C330FCE75E
:1004A000DF07C9F0C115DC4771F0C8010E947B016C
:1004B0000DC0CB35ECE7DE07B1F0CC35DC47A9F752
:1004C0000E94770BF2CF0E940F0280E0DF91CF9164
:1004D0001F910F9108950E94880B0E941502F5CF7D
:1004E0000E94800BE2CF0E94840BDFCF0E94FB169C
:1004F0000E94960208950E949A020E940017089591
:1005000081E008950895CF93DF93D82F0E94800251
:10051000C82F811519F08D2F0E9482028C2FDF9138
:10052000CF91089508950E948302089580E00E946B
:10053000930208950E94E3140E9493020895CF93BA
:100540000E94E314C82F809194018C1779F0C09316
:1005500094010E948A17609395017093960180938D
:100560009701909398018C2F0E949302CF91089548
:10057000ADE0B0E0EEEBF2E00C949C1E48875987AA
:100580006A877B878C879D8791110E94830A1F82CF
:1005900086E0FE013896DE01119601900D928A9553
:1005A000E1F78D8181110DC029813A814B815C81F8
:1005B0006D817E818F810E94CD092D96E2E00C94A1
:1005C000B81ECE0101960E94BF018111EDCFF5CF7B
:1005D000FC018481813021F4808191810E947A071D
:1005E0000895611529F00E9457120E94181308956A
:1005F0000E94A012FACFCF93C82F811599F08CEFEB
:100600008C0F813A88F48C2F0E948715811529F070
:100610008C2F0E9430160E94190B8C2F0E941616E8
:100620000E94190BCF91089580E28C0F883048F416
:10063000C77081E001C0880FCA95EAF70E94640A7A
:10064000EFCF8BE58C0F833038F42C2F2452330BF3
:10065000C9010E941915E6CFE8E5EC0FEB3150F423
:10066000F0E0EE0FFF1FE65EFE4F808191810E9459
:100670003F15D8CF83E38C0F8331A0F661E08C2F38
:100680000E94F102CFCF811581F19CEF980F913A32
:1006900028F40E9430160E94190B089590E2980FDA
:1006A000983050F4877091E001C0990F8A95EAF76D
:1006B000892F0E946A0AEFCF9BE5980F933028F4A8
:1006C00080E090E00E941915089598E5980F9B31FD
:1006D00028F480E090E00E943F15089593E3980F7E
:1006E000933118F460E00E94F10208950F931F9374
:1006F000CF93C82F8B010E94FB020115110539F41D
:100700008C2F0E944303CF911F910F9108958FE981
:100710009FE00197F1F700C0000001501109EDCFF3
:1007200060E570E0893311F060E070E00E947603CC
:100730000895811521F00E94640A0E94190B089502
:10074000811521F00E946A0A0E94190B0895A0E009
:10075000B0E0EDEAF3E00C94961E6C01D62FC72FA3
:10076000FC011581068102950F700E94590AE82E3E
:100770008115F9F0E12E1115E1F08C2F807F803486
:1007800061F080E28D0F8830F0F08C2F807E803217
:1007900021F4D230C0F00115B1F08091770282FFD0
:1007A00012C082E00E944A0B0E94590A91E0E82E92
:1007B000E926EC2FE295EF70C03CB0F5F0E0EF5B7E
:1007C000F04E0C94861EE12CF4CF0C2F0F70C0312C
:1007D00010F00295007F111599F0011559F080E293
:1007E0008D0F883010F0D11107C0802F0E94640A4D
:1007F0000E94190B8D2F51C0802F0E94750AF8CFCF
:100800008D2F0E944303011579F080E28D0F88300F
:1008100010F0D11104C0802F0E946A0A03C0802FFB
:100820000E947B0A0E94190BE11489F00E94550A6C
:1008300080FD0DC0F60115820E944F0A0E948206BB
:10084000C6010E94B7050E944F0A0E949206CDB7CA
:10085000DEB7E8E00C94B21EFC2FFF70FF2EC07FC5
:10086000C03219F0F29480EFF822D11541F0D13066
:10087000D1F1111509F444C00115F1F0BBCF8091FD
:10088000770282FD15C0111559F0F11429F08F2D52
:100890000E94640A0E94190B80E00E94FB02C4CFF0
:1008A00080E00E944303F11409F4BECF8F2DB4CF32
:1008B000111569F0011104C08F2D0E949903B4CF66
:1008C000013009F0B1CF8F2D0E949B0AADCF0111ED
:1008D000ABCF8F2D0E94A0038F2D0E94A70A8F2DD2
:1008E0000E948A0AA1CF111521F0063008F09CCF92
:1008F000E3CF053008F098CF8F2D0E94A00394CF4E
:100900000115D1F3D93349F42FEF87EE93E021504D
:1009100080409040E1F700C000008D2F0E9443030B
:1009200083CF8C2F869586958370811569F08130F1
:1009300009F07ACF8D2F9C2F9370111102C080E0A7
:1009400090E00E943F1570CF8D2F9C2F9370111156
:1009500002C080E090E00E94191566CF612F8D2FB4
:100960000E94F10261CF8C2F8370811139C0111167
:1009700029C04D2F429546954770440F440F2D2FA7
:100980002F7030E0042E02C0220F331F0A94E2F7CA
:1009900080E090E0D4FF09C08FE090E002C0880FB3
:1009A000991F4A95E2F780959095C695C695C370B4
:1009B000822B932BC23071F0C33079F0C13039F003
:1009C0000E9452060E94E3140E9493022DCF0E94BF
:1009D0004906F8CF0E945B06F5CF0E944606F2CF8B
:1009E000111561F1C0FFEECF4D2F4295469547702E
:1009F000440F440F2D2F2F7030E0042E02C0220F21
:100A0000331F0A94E2F780E090E0D4FF09C08FE042
:100A100090E002C0880F991F4A95E2F78095909563
:100A2000C695C695C370822B932BC23069F0C33034
:100A300071F0C13031F00E94BD06C4CF823010F297
:100A4000D3CF0E94B406BECF0E94C606BBCF0E9481
:100A50006A06B8CFCF70111539F08C2F0E9482062C
:100A60008D2F0E949903AECF8D2F0E94A0038C2F53
:100A70000E949206A7CFD23F41F170F4D03FC9F057
:100A8000D13F91F0111509F446C0011509F440C099
:100A90008D2F0E94FB0296CFD33FF1F0D43F91F708
:100AA0008091770282FD22C08C2F8F71111501F386
:100AB00010C0111541F0053008F084CF8C2F8F71D4
:100AC0000E94A4067FCF0630F7CF8C2F8F711111B3
:100AD000CFCF0E94820676CF111529F08C2F8F710F
:100AE0000E9476066FCF0E9471066CCF111531F00F
:100AF00063E08C2F8F710E942B0B64CF81E00E94EA
:100B00004A0B023008F45ECF82E00E944A0B5ACFB3
:100B10008C2F8F71DECF011579F0D93349F4EFEFC7
:100B2000F7EE23E0E150F0402040E1F700C0000084
:100B30008D2F0E94430346CF8C2F8F7199CF0F9337
:100B40001F93CF93DF93EC01688179818D810E949F
:100B500087078C010E94CF060E944506B801CE018E
:100B60000E94A703DF91CF911F910F910895CF931A
:100B7000DF93EC018C81811599F0CE010E941B025C
:100B8000811111C00E94590A811551F08D81811582
:100B900039F08091770282FF03C082E00E944A0B05
:100BA000DF91CF910895CE010E949F05CE010E9452
:100BB000CD01F6CF80E090E00E94191580E090E032
:100BC0000E943F150E94830A0E94190B0E94351350
:100BD0000E94181308950E944A160E94DA0508958B
:100BE0000E94720A0E94EB050895282F92959F702B
:100BF000963099F060F4925F9F70923030F4203F0D
:100C0000B1F038F481E0283E38F080E008959A5F32
:100C1000F3CF81E0243FC9F7089591E0813F09F0C7
:100C200090E081E0283E08F080E0892B089581E083
:100C30000895FC018481811539F0808191810E94A1
:100C40007A070E94F505089580E00895A6E0B0E0D7
:100C5000ECE2F6E00C949C1E2696E2E00C94B81EA2
:100C6000A7E0B0E0E6E3F6E00C949C1E2796E2E0F5
:100C70000C94B81E08950E943A0608950E943B06FF
:100C80009093AD018093AC01089508950E943E06B3
:100C900008952091AC013091AD01822B932B0E94DD
:100CA0003E0608952091AC013091AD01822393233B
:100CB0000E943E0608952091AC013091AD0182273B
:100CC00093270E943E0608950E943A0608950E94C6
:100CD000640608950E9467069093AB018093AA0171
:100CE000089580E090E00E946A06089521E030E0D7
:100CF000A90102C0440F551F8A95E2F7CA010E945C
:100D00006A06089521E030E002C0220F331F8A9561
:100D1000E2F78091AA019091AB01822B932B0E9464
:100D20006A06089521E030E002C0220F331F8A9541
:100D3000E2F7209530958091AA019091AB01822332
:100D400093230E946A06089521E030E002C0220F3A
:100D5000331F8A95E2F78091AA019091AB01822717
:100D600093270E946A0608952091AA013091AB0151
:100D7000822B932B0E946A0608952091AA0130913C
:100D8000AB01822393230E946A0608952091AA0151
:100D90003091AB01822793270E946A060895089537
:100DA0009B01677091E001C0990F6A95EAF763E0D3
:100DB000369527956A95E1F7220F331F220F331FCF
:100DC000FA01E20FF31F40E050E0682F70E08191DC
:100DD000DF019B01042E02C0369527950A94E2F7A5
:100DE000217021952827292328272E934F5F5F4FB5
:100DF0004430510561F708959C01982F977083E066
:100E0000369527958A95E1F7220F331F220F331F5E
:100E1000FB01E20FF31F40E050E080E0219130E061
:100E2000092E02C0369527950A94E2F721703327E0
:100E3000042E01C0220F0A94EAF7822B4F5F5F4F06
:100E40004430510559F70895282F862F943068F4BF
:100E5000273058F4622F70E027E0929F600D711DDB
:100E600011244AE951E00E94D0060895292F9430B8
:100E700068F4873058F490E06AE971E037E0239F26
:100E8000800D911D11240E94FC06089580E00895B4
:100E9000A0E0B0E0EEE4F7E00C94951E8C01E09049
:100EA000AA01F090AB018091AC019091AD01E82ACC
:100EB000F92ACFE0D0E0CC24C394D12CC6010C2E6B
:100EC00002C0880F991F0A94E2F78E219F21892B77
:100ED00049F4219798F7B12C8B2DCDB7DEB7E9E017
:100EE0000C94B11EBC2EB8018C2F0E94400E0197AD
:100EF00081F3F2CFCF93DF93D82FC92F0E944807F9
:100F00006D2F7C2F0E94400EDF91CF9108951F938B
:100F1000CF93DF93162FD72F90919901911541F020
:100F2000862F972F0E947A07DF91CF911F91089506
:100F3000811581F0862F972F0E944807C82F682FB0
:100F4000812F9D2F0E942407612F7D2F8C2F0E94BF
:100F5000400EEACF862F972F0E943607C82FF4CF76
:100F60000F931F93CF93E091AE01C7E08091AF0143
:100F70008E1304C0CF911F910F9108950E2F10E092
:100F8000CE9FF0011124E055FE4F20813181428136
:100F900053816481758186810E943006F801319603
:100FA000E770E4CF2091E8013091E9014091EA0136
:100FB0005091EB016091EC017091ED018091EE0197
:100FC0000E94300608958091EE01803178F480917E
:100FD000ED01811559F0E091AE012091AF01309102
:100FE000E9014091E80157E02E1301C008956E2FEA
:100FF00070E05E9FF0011124DF01A055BE4F1496F2
:101000008C911497811561F111968C91119783132E
:1010100027C08C91841324C015968C91159781114B
:101020001FC012968D919C91A091EA01B091EB01A5
:101030008A1B9B0B883C910598F48091EE018F7080
:1010400080618093EE01EA54FE4F80818F70806151
:10105000808388EE91E00E94B7050E94B007089552
:10106000FB013196E770C0CFE091AE019091AF01E6
:1010700027E0E91302C080E00895AE2FB0E02E9F74
:10108000F0011124E055FE4F3181361306C0308146
:10109000381303C03581341304C0FD013196E77065
:1010A000E8CF81E008958F929F92AF92BF92DF9236
:1010B000EF92FF920F931F93CF93DF93CDB7DEB7DD
:1010C0002D970FB6F894DEBF0FBECDBF8C0186E022
:1010D000F801DE01189601900D928A95E1F7F8016A
:1010E000F580848198EE892E91E0992E9091EC0103
:1010F00091111BC0811509F4FFC0F11409F440C11E
:10110000C8010E941906811509F43AC187E0F80167
:10111000D40101900D928A95E1F7C4010E94E80282
:101120000E94E3070E94D207E7C0E080A280B3805C
:10113000D090ED012091EA013091EB01A501421B15
:10114000530BD11409F4DBC0483C510508F0A6C08C
:10115000811509F4D1C09091E90191808091EE014F
:10116000803108F06BC0991228C09091E8019E115F
:1011700024C0F1105DC08F7080618093EE010E94E9
:10118000D20788EE91E00E94B7058091EE01F80148
:101190008683F12C8F2D2D960FB6F894DEBF0FBEEF
:1011A000CDBFDF91CF911F910F91FF90EF90DF9016
:1011B000BF90AF909F908F900895F11039C040E09C
:1011C000692D8E2D0E94340840E0692D8E2D0E94DD
:1011D0003408F82E8111DDCF888599850E947A0721
:1011E000292F22952F70903450F49F70223080F078
:1011F000911599F0F8019681903178F4CBCF2A5F60
:101200002F70223078F0C8010E94B705FD2CC2CFA4
:10121000911519F0811509F4BDCF805E883008F46E
:10122000B9CFF1CF803F08F4B5CF815F8330F7CFDE
:101230008091EE0181608093EE01ABCF991207C0DF
:101240009091E8019E1103C0F11409F479C0C8011E
:101250000E941906811509F493C0F11409F490C095
:101260008091EE01803288F02091E8013091E9010F
:101270003A832983BC82AB829091EC019D831E82CC
:101280008F83CE0101960E94B70587E0F801A8EE92
:10129000B1E001900D928A95E1F742CF9091EE0175
:1012A0009031A0F4488559856A857B858C859D851C
:1012B0000E94260688EE91E00E94B70587E0F401BF
:1012C00011928A95E9F70E94D20763CF8115A1F0A8
:1012D0002091E90181812813BACF8091E8018E1114
:1012E000B6CFF110B4CF9683C8010E94B70587E04E
:1012F000F40111928A95E9F7FF24F3944BCF483C0F
:10130000510508F041C08115B9F3F114C9F190916C
:10131000E901818198132AC08091E8018E1126C0CD
:101320008091EE0180FD19C08031B8F08683807F06
:10133000803F39F08681982F907F905F8F70892B46
:101340008683C8010E94B70587E0F801A8EEB1E0E6
:1013500001900D928A95E1F7E5CE87E0F801A8EEBD
:10136000B1E001900D928A95E1F7C6CFC8010E94C5
:10137000190681118ACF8091EE0181608093EE0180
:10138000C8010E94B705B8CF488559856A857B8515
:101390008C859D850E94260691CFAEE0B0E0E3EDFE
:1013A000F9E00C949B1E288739874A875B876C87F6
:1013B0007D878E87CE0108960E9453086C85811523
:1013C000A9F0611541F0288539854A855B857D85C1
:1013D0008E850E94300617E08091AE019091AF019A
:1013E00089133AC02E96E3E00C94B71E87E0FE0105
:1013F0003896DE01119601900D928A95E1F76115FC
:1014000051F3A091AF018A2F90E001968770992740
:101410002091AE012817190689F097E09A9FD00114
:101420001124A055BE4FFE01319601900D929A9560
:10143000E1F78093AF010E94B007CDCF0E94F00585
:101440001092AF011092AE0187E0E8EEF1E0DF010B
:101450001D928A95E9F7BFCF189FC00111248055CE
:101460009E4F0E945308811509F4BCCFE091AE0154
:101470001E9FF0011124E055FE4F208131814281F1
:1014800053816481758186810E9430068091AE010E
:1014900090E00196877099278093AE019DCF80914F
:1014A0001702869586958695089580911702877014
:1014B000089590911702977081E0911101C080E02A
:1014C000089580914302089590914302982B909340
:1014D00043020895982F9095809143028923809329
:1014E0004302089510924302089590914202982B6E
:1014F000909342020895982F9095809142028923FB
:1015000080934202089510924202089508950E9425
:10151000860A089590911802292F2823211531F069
:1015200080958923809318020E94870A0895089560
:101530000E94970A089590911902292F28232817AD
:1015400029F0982B909319020E94980A089590917F
:101550001902292F2823211531F0809589238093A2
:1015600019020E94980A089580911902811529F0A4
:101570001092190280E00E94980A0895CF93C091BA
:10158000430280914202C82B80911902811531F0EB
:10159000C82B0E94651581110E94B40A8C2FCF912F
:1015A0000895CF93DF93C0910201D09103010E946F
:1015B000BE0A8883C0910201D091030148E050E047
:1015C0006FE072E0CE010E94D71E892B59F088E0AF
:1015D000FE01AFE0B2E001900D928A95E1F7CE01F5
:1015E0000E94F014DF91CF910895CF93DF93C091C3
:1015F0000001D09101010E94BE0A8983C0910001BF
:10160000D091010140E250E06FEE71E0CE010E9406
:10161000D71E892B59F080E2FE01AFEEB1E00190B8
:101620000D928A95E1F7CE010E94FB14DF91CF91D4
:1016300008950E94D616813039F48091760287FF92
:1016400003C00E94F50A08950E94D10A08950895E2
:101650000E94270B0895962F2091770222FF11C038
:10166000682F660F660F660F692B609317020E9442
:101670008206809117028695869586950E94280B92
:1016800008950E94820608951092170280E00E9439
:10169000280B089590911702809589238093170253
:1016A000282F277021110DC0891759F090917702CA
:1016B00092FF07C08695869586950E9492060E94A5
:1016C000440B08959091770292FB222720F9281766
:1016D00069F080FB92F99093770280917602909165
:1016E00077020E94B00B82E00E944A0B089580911D
:1016F0007702002482FF0394802D0E94620B0895DC
:1017000081E00E94620B089580E00E94620B0895C0
:101710006FEF7FEF80E090E00E94291F089580E046
:1017200090E00E94F51E9C0181E0253E3E4F09F0AD
:1017300080E0089582E090E00E94ED1E089583E02D
:1017400090E00E94ED1E90E00895682F83E090E005
:101750000E940B1F089584E090E00E94F51E0895FA
:10176000BC0184E090E00E94291F0895AB01BC01F8
:101770008FE090E00E941D1F0895AB01BC0183E142
:1017800090E00E941D1F089560E070E0CB010E9470
:10179000BD0B089560E070E0CB010E94B60B0E9483
:1017A000C40B0895A8E0B0E0E8EDFBE00C949C1EAB
:1017B00065EE7EEF80E090E00E94291F60E082E00D
:1017C00090E00E940B1F81E090E09093AD01809328
:1017D000AC010E94A50B60E074E184E090E00E94FF
:1017E000291F60E086E090E00E940B1F60E087E028
:1017F00090E00E940B1F40E050E0BA0188E090E0CA
:101800000E941D1F60E083E290E00E940B1F60E0D9
:101810008CE090E00E940B1F60E08DE090E00E9461
:101820000B1F19821A821B821C821D821E821F823C
:10183000188648E050E067E170E0CE0101960E9412
:10184000FB1E40E050E0BA018FE190E00E941D1FB6
:101850000E94CA0B2896E2E00C94B81E0E94D20B9C
:101860000895682F8EE090E00E940B1F0895A6E077
:10187000B0E0EDE3FCE00C949A1E0E947E178C0110
:1018800080914402909145028017910779F0198266
:101890001A820E947E17BC0149815A8180E090E043
:1018A0000E94B80210934502009344022696E4E099
:1018B0000C94B61E0E948A1760934E0270934F02DA
:1018C000809350029093510260934A0270934B02AE
:1018D00080934C0290934D020895089508950E94BC
:1018E0006D0C089508950E94720C089585E39FE0A1
:1018F0000E94A0100E946E0C0E946F0C089581E05F
:10190000089581E008950E947F0C08950895089538
:101910000E94860C0E94870C08950E948F0B8111F3
:1019200002C00E942E0C0E949A0B809352020E94C9
:10193000AB0B90937702809376020E94C3100E94B3
:101940009F0B0E9446068091AA019091AB010E94D4
:10195000670608950E9475170E94F20F0E948D0C71
:101960000E9492020E94730C0895A6E0B0E0EBEB97
:10197000FCE00C94931E0E94810C81110AC00E940D
:10198000370C0E9456130E949F022696EBE00C949F
:10199000AF1E0E94081086E4A82E82E0B82E7501C2
:1019A00010E0F70101917F01812F0E94510F1F5F0D
:1019B000143009F442C00817A1F38091520281FD4E
:1019C0000E94570F0E94830CC82E00E09924939424
:1019D000802F0E94510F182FF50191915F018917F7
:1019E00031F1D82ED926F12CEE24E3948D2D8E21C1
:1019F0008115B1F0C114A1F0F9820A830E947E170B
:101A00009C838B839D8291E0812F8E21811101C067
:101A100090E049815A816B817C818D810E94B8025E
:101A2000F394EE0CF7E0FF12E1CFF50112930F5F94
:101A3000043071F60E945A0CA4CF0813BECF9FCF7A
:101A40001F93CF93DF930E94450EEC01811522E591
:101A5000920708F05DC0811540E5940708F0DBC0EF
:101A6000803E910528F58D3C910508F0ACC0883A80
:101A7000910578F4853A910508F0A2C0813091056E
:101A800009F441C00497813A9105E8F1C0E0D0E043
:101A90003AC0885A91094B97C8F7C85AD0E0CC0F82
:101AA000DD1FC05BDE4F0990D881C02DD4642BC0F0
:101AB000811550E49507F8F4C11580E2D80708F0C5
:101AC000C0C0C83ED105F8F0CE019A9581159F415E
:101AD000E8F68D2F0E94E60E182FCE0199270E945E
:101AE000450E212F30E0322F2227E901CC27DF716C
:101AF000C82BD92B08C099270E94450ECC27DF7030
:101B0000C82BD92BD06ACE01DF91CF911F910895B8
:101B1000803842E59407C8F5803652E5950708F00D
:101B20005BC0C03482E5D807D0F4C03292E5D90753
:101B300008F04BC08C2F8695869520E2829FC001CD
:101B40001124C37021E030E0A90102C0440F551FE9
:101B5000CA95E2F7EA01C82BD92BDD68D4CF8C2FC8
:101B600086958695877050E2859FC0011124C370C9
:101B700021E030E0A90102C0440F551FCA95E2F7E9
:101B8000EA01C82BD92BDC68BECF803C52E5950713
:101B900058F48F71C03AD245A0F590E0982F88276D
:101BA000EC01C46FD06AAFCF805C9245809708F09B
:101BB0006DCFDC2FCC27CC27DF71C06FD06AA3CFCD
:101BC000A497D064A0CFD0659ECFCF71D0E0DC2F9A
:101BD000CC27C16FD06A97CF86958695877020E213
:101BE000829FC0011124C37021E030E0A90102C02E
:101BF000440F551FCA95E2F7EA01C82BD92BDA68C2
:101C000082CF0E94E60EC82FD0E0DC2FCC27CC2755
:101C1000DF71D06278CF8F710E94E60E53E0CC0F57
:101C2000DD1F5A95E1F7CC27DF70282F30E084FFC5
:101C300004C050E1859F90011124C22BD32BD069A1
:101C400062CF8D2F8F710E94E60E182FCE0199273B
:101C50000E94450E212F30E0322F222722273F718C
:101C6000282B392BE901D5CF462F672F743028F464
:101C7000473018F40E947301089580E090E00895C1
:101C80000E94340E0E94200D08959C01803E910513
:101C900009F448C0D8F48133910509F47DC048F4B3
:101CA0008932910509F46DC08A9709F47CC0C90195
:101CB00008958933910551F18238910539F1C5971D
:101CC000B1F78091760285FFF2CF29C0843E91055D
:101CD00009F447C048F4823E910599F1833E91058D
:101CE000A9F121EE30E0E3CF863E910509F444C02E
:101CF000873E9105E1F68091760283FD61C0909167
:101D0000770291FF2BC024EE30E0D1CF8091760294
:101D10008370811152C08091770283FFC8CF29E27E
:101D200030E0C5CF8091760280FD33C0909177027C
:101D300090FFBDCF23EE30E084FFB9CF20E030E04C
:101D4000B6CF8091760282FDF5CFB1CF8091760239
:101D500082FD30C09091770290FD2FC084FFA7CF05
:101D6000EDCF8091770281FFA2CF8091760227EE9E
:101D700030E084FDE3CF9BCF8091760283FDF7CFE7
:101D800096CF8091760285FD1EC08091770283FFF9
:101D90008ECF29E330E08BCF8091760286FF87CF0C
:101DA0002AE230E084CF8091760286FF80CF21E363
:101DB00030E07DCF22EE30E07ACF20EE30E077CFFA
:101DC00026EE30E074CF25E330E071CF90917602BB
:101DD00092FF10C041E0282F2471243009F040E028
:101DE00031E0282F2871283009F030E0431711F036
:101DF0002CE0822793FF10C041E0282F247124316A
:101E000009F040E031E0282F2871283109F030E056
:101E1000431711F02CE082273091770230FF10C079
:101E200051E0282F2171213009F050E041E0282FA6
:101E30002871283009F040E0541711F029E082277A
:101E400031FF10C041E0282F2171213109F040E01D
:101E500031E0282F2871283109F030E0431711F0C4
:101E600029E0822794FD877E089580E00895CF932E
:101E70009C01FB01805E9245C1E0809738F4C581EA
:101E8000C11104C0822F8F710E94E7018C2FCF9166
:101E9000089508950E94490F089508950E944D0FD6
:101EA0000895E82FF0E0E458FD4F808108950895EB
:101EB00080EA8A95F1F7089500C008950E94580FAE
:101EC0000895F894E82FE295EF70F0E041A18F704B
:101ED00021E030E0B90102C0660F771F8A95E2F772
:101EE000CB01962F9095942391A392A1892B82A345
:101EF00078940895CF93DF9384EF0E94610F85EF6C
:101F00000E94610F86EF0E94610F87EF0E94610FB0
:101F1000C6E8D1E089918F3F11F00E94610F81E006
:101F2000CD38D807B9F7DF91CF910895A0E0B0E0A0
:101F3000ECE9FFE00C94961EEC01D62E062F10E083
:101F4000C80183579E4F7C01FC0180818F3F09F4BB
:101F500044C0F894E82FE295EF70F0E091A18F7003
:101F600021E030E001C0220F8A95EAF7892F822B09
:101F700081A382A12095282322A378940E945C0F3C
:101F8000A6E8B1E091E0C12C8D918F3F79F0E82F68
:101F9000E295EF70E05EF0E0208130E08F7002C0EB
:101FA000359527958A95E2F7892F20FD80E0C82A8C
:101FB000990FF1E0AD38BF0739F7F70180818F3F06
:101FC00011F00E94610F61E0C11001C060E08D2D31
:101FD0000E945E0FC00FD11FC882CDB7DEB7E8E008
:101FE0000C94B21E0E947A0F84E0ECE7F2E0DF016D
:101FF000982F1D929A95E9F7E8E7F2E0DF011D922C
:102000008A95E9F784E00E9448100E944A0F0895DB
:10201000A4E0B0E0EEE0F0E10C94991EFE013196F0
:1020200084E0DF011D928A95E9F710E0FE2E0F2F64
:10203000612F8F2D902F0E94960F1F5F1430C1F7D4
:1020400044E050E06F2D702F88E792E00E94D71E89
:1020500021E0892B81F420E044E06CE772E088E71E
:1020600092E00E944910182F0E944E0F812F249653
:10207000E5E00C94B51E89819A81AB81BC81809387
:10208000780290937902A0937A02B0937B02E4CF16
:102090000895A0E0B0E0EFE4F0E10C94961ED82E95
:1020A000E92EF62ED72F042FC22F211579F081E0CB
:1020B000809355020E947E1790935402809353029E
:1020C00080E0CDB7DEB7E8E00C94B21EC0905502B8
:1020D000C114B1F380915302909154020E9496175B
:1020E000059770F310E0A8016D2D7E2D8F2D9D2F8B
:1020F0000E94D71E892B41F0A8016D2D7E2D8F2DBA
:102100009D2F0E94E41ECC2D109255028C2FD9CF0A
:102110000E94B50C08950E9417170E942F190E9463
:10212000760C0E9449190E94AA0C0E9456190E941E
:102130005B190E9488100E9475190E94880CF7CFC5
:10214000909393018093920108950E94880B0895C3
:1021500080E00E94510F817008950E9408102FEFB7
:1021600086E791E0215080409040E1F700C00000F8
:102170000E9408100E94A810811521F00E94A5104D
:102180000E94C91708950E94AD100895CF93DF9360
:10219000EB0186319C4719F50E94610A9D819115DA
:1021A000A1F08A7A91E0811101C090E090935602EB
:1021B000811549F085E30E9416160E94190B80E0F4
:1021C000DF91CF91089589E2F6CF80915602811573
:1021D00021F085E30E943016F0CF89E2FBCF81E049
:1021E000EFCFCF93DF93EC01FB018581811509F4DB
:1021F000CFC09E0130572332310508F0AFC00E9496
:10220000AB0B9093770280937602FE01E150F0478A
:10221000E232F10520F4E35BF04E0C94861E8091CF
:10222000760281608093760290C080917702886008
:10223000809377028AC0809176028260F3CF80918A
:1022400076028460EFCF809176028860EBCF809138
:1022500077028160EDCF809177028260E9CF809133
:1022600076028061DFCF809176028062DBCF809141
:1022700076028064D7CF0E94F00580917602806854
:10228000D1CF809176028C60CDCF80917702836030
:10229000CFCF809176028E7FC5CF80917702877FE6
:1022A000C7CF809176028D7FBDCF809176028B7FE4
:1022B000B9CF80917602877FB5CF809177028E7FEC
:1022C000B7CF809177028D7FB3CF809176028F7EDA
:1022D000A9CF809176028F7DA5CF809176028F7BEA
:1022E000A1CF0E94F005809176028F779BCF8091DD
:1022F0007602837F97CF809177028C7F99CF8091F0
:102300007602992782FF939590FB82F990FB83F9DF
:1023100089CF80917702982F909590FB80F990FB60
:1023200081F986CF90917602892F8F7B96FF80640A
:1023300079CF0E94F00590917602892F97FB87F95B
:10234000805870CF81E00E94310C8091760290918C
:1023500077020E94B00B0E94F00580E0DF91CF91E0
:10236000089580E0F0CF90917602892F8F7E94FFC0
:10237000806158CF90917602892F8E7F90FF816087
:1023800051CF90917702892F877F93FF886050CF3C
:1023900081E0E4CF282F35EB2303C001112497FF00
:1023A00004C080589109892F089580589F4FFBCF12
:1023B00080915D0280FF0DC06091090170E0660FA1
:1023C000771F60387105B0F561157105A9F1862F89
:1023D000089581FF07C06091090184E0689FB00102
:1023E0001124EFCF82FF04C06091090188E0F6CF8D
:1023F00090915C029115D9F020910801809109011A
:10240000682F70E0921730F043E0660F771F4A950F
:10241000E1F7D7CF899FC001112433E0880F991FBE
:102420003A95E1F7622F70E00E94721ECACF68E011
:1024300070E0CDCF8FE7089581E0089580915D022F
:1024400080FF0CC06091050170E0759567957595EA
:1024500067956115710549F1862F089581FF06C0C2
:102460006091050170E075956795F3CF6091050166
:1024700082FD0BC090915B029115A1F06091040167
:1024800080910501961738F0682F70E0603871056B
:1024900000F38FE70895899FC001112470E00E9426
:1024A000721EF4CF61E070E0D7CF81E00895E3E3DE
:1024B000E80FE331E0F5F0E0E159F04E0C94861EB0
:1024C0000E94D81181958093610208950E94D811CD
:1024D000FACF0E94D81181958093600208950E94DE
:1024E000D811FACF0E941E128093620208950E94B2
:1024F0001E128195F9CF0E941E128195809363026E
:1025000008950E941E12FACF815D990B21E030E000
:1025100001C0220F8A95EAF780915F02822B809397
:102520005F02089580915D02816080935D0208954D
:1025300080915D028260F9CF80915D028460F5CF69
:10254000409160028D3C59F48091610287FF0DC07B
:1025500010926102411559F410925C0208C08E3C41
:1025600081F48091610218169CF3411581F08091ED
:10257000620290916302892B811159C010925B0213
:1025800008958F3C41F447FFF0CF10926002809194
:1025900061028115E0CF803D19F41416B4F3E5CF44
:1025A00090916202893D29F41916FCF6109262029C
:1025B000DCCF8A3D19F497FFD8CFF8CF9091630212
:1025C0008B3D29F497FFD1CF10926302CECF8C3D83
:1025D00019F41916CCF3C9CF9FE2980F983090F4F4
:1025E000815D990B21E030E0B90102C0660F771FD1
:1025F0008A95E2F7CB01809590915F0289238093C1
:102600005F02B3CF8D3D31F480915D028E7F809368
:102610005D02ABCF8E3D21F480915D028D7FF7CFBF
:102620008F3D09F0A2CF80915D028B7FF0CF08959E
:102630000E947E172091600230916102232B2115A8
:1026400021F08093590290935A02209162023091B6
:102650006302232B211521F0809357029093580297
:102660008EE592E00E940A15089586E0EEE5F2E01C
:10267000DF011D928A95E9F710925C0210925B02CD
:1026800010925D020895FC01828181110DC0838149
:1026900081110AC08481811107C081E09581911167
:1026A00001C080E08170089581E0FCCFA6E0B0E039
:1026B000ECE5F3E10C94961E86E0EEE5F2E09E0177
:1026C0002F5F3F4FD90101900D928A95E1F710924B
:1026D00060021092610210926202109263028B817A
:1026E0009C81892B7901811589F080915902909103
:1026F0005A020E9496176C0180915C028115B9F113
:1027000090910A019C151D0408F43EC08D819E81A4
:10271000892B811591F080915702909158020E9467
:1027200096178C0180915B02811509F45FC090912E
:1027300006019017110608F467C0B7018EE592E014
:102740000E946416811105C08EE592E00E94431339
:1027500081110E94181386E0F701AEE5B2E0019006
:102760000D928A95E1F72696E8E00C94B21E20912E
:102770000B019AE0299F900111242C153D0530F69C
:102780008F5F80935C0202C08F3FD1F7DB80D11452
:1027900059F00E94D81191E01D140CF09FEF899F11
:1027A000802D112480936002DC80D11459F00E94A6
:1027B000D81191E01D140CF09FEF899F802D1124FA
:1027C0008093610280916002811509F49FCFD090BF
:1027D0006102D11409F49ACF0E94CA118093600259
:1027E0008D2D0E94CA118093610290CF2091070124
:1027F0009AE0299F900111242017310708F09DCFFE
:102800008F5F80935B0202C08F3FD1F71D8111154E
:1028100059F00E941E1291E011160CF09FEF899F53
:10282000802D1124809362021E81111559F00E949F
:102830001E1291E011160CF09FEF899F802D11243C
:102840008093630280916202811509F476CF109122
:102850006302111509F471CF0E94CA1180936202BC
:10286000812F0E94CA118093630267CF0F931F9339
:10287000CF93DF93C42FD22FFC0185818115C9F03E
:10288000409366020E947E179093650280936402D3
:1028900080E28C0F883040F4C77081E001C0880F5F
:1028A000CA95EAF70E949903DF91CF911F910F918A
:1028B000089510916602141333C0809164029091C0
:1028C00065020E949617883C910550F5C0E2CD0F35
:1028D0001D17C1F080E2810F883040F4177081E04D
:1028E00001C0880F1A95EAF70E94A003C83050F47F
:1028F00091E08D2F877001C0990F8A95EAF7892F93
:102900000E949903802F0E949003C83068F6D77008
:1029100081E001C0880FDA95EAF70E94A003C4CFD6
:1029200080E28C0F883008F0BFCFC77081E001C013
:10293000880FCA95EAF7F1CF0F93DB01FC01E8514C
:10294000FC47E730F10598F5EE57F04E0C94861EE3
:1029500006E221EE41EE6AE17CE7CD010E943614E9
:1029600080E00F91089507E225EE45EE6BE17CE7EC
:10297000F4CF06E221EE40EE68E17CE7EECF07E21D
:1029800025EE44EE69E17CE7E8CF06E221EE42EE77
:102990006CE17CE7E2CF07E225EE46EE6DE17CE7F5
:1029A000DCCF08E221E045EE6EE17CE7D6CF15965C
:1029B0008C9181111092660281E0D3CF90936C02CA
:1029C00080936B020895E0916B02F0916C02309756
:1029D00029F00190F081E02D0995089580E0089597
:1029E000E0916B02F0916C02309721F00280F3814C
:1029F000E02D09950895DC01E0916B02F0916C02E5
:102A0000309739F086E08C930480F581E02DCD017C
:102A100009950895DC01E0916B02F0916C0230970A
:102A200039F082E08C930680F781E02DCD01099585
:102A30000895A3E0B0E0EFE1F5E10C949C1E9C0149
:102A40008091690290916A0282179307A1F03093F6
:102A50006A0220936902E0916B02F0916C02309758
:102A600051F083E089833B832A830084F185E02D44
:102A7000CE01019609952396E2E00C94B81EA3E0DE
:102A8000B0E0E5E4F5E10C949C1E9C0180916702A6
:102A90009091680282179307A1F030936802209307
:102AA0006702E0916B02F0916C02309751F084E084
:102AB00089833B832A830084F185E02DCE01019632
:102AC00009952396E2E00C94B81ECF93DF93C09152
:102AD0000201D091030122960E94D616813081F422
:102AE0008091760287FF0CC0C0910001D091010156
:102AF00022969EE180E0915028F4DF91CF910895D5
:102B000096E0F8CF29912115B1F38F5FF4CFCF93E1
:102B1000C82F811102C080E031C00E94D6168130DA
:102B200021F48091760287FD0EC080910201909180
:102B30000301FC013296089621912C1709F1E81740
:102B4000F907D1F7E8CF8C2F869586958695C03FFB
:102B500010F7E0910001F0910101E80FF11D2281D1
:102B600030E0C77081E090E002C0880F991FCA95DD
:102B7000E2F72823392381E0232B69F2CF910895CE
:102B800081E0FCCF9C01FC0132968FEF90E04191F7
:102B9000461751F08F3F19F4411101C0892F9F5FF3
:102BA0009630A9F78F3F09F40895280F311D87FD4E
:102BB0003A95F901628308959C01FC013296285FE1
:102BC0003F4F8191861302C0DF011E92E217F30787
:102BD000C1F70895FC01862F869586958695603FFE
:102BE00060F4E80FF11D677021E030E001C0220FB2
:102BF0006A95EAF78281822B82830895FC01862FF1
:102C0000869586958695603F80F4E80FF11D677084
:102C100081E090E09C0102C0220F331F6A95E2F729
:102C2000B90160958281682362830895CF93C82F8C
:102C30000E94D6166C2F813061F48091760287FF56
:102C400008C080910001909101010E94EA15CF9186
:102C5000089580910201909103010E94C215F7CF5F
:102C6000CF93C82F0E94D6166C2F813061F48091CB
:102C7000760287FF08C080910001909101010E94B7
:102C8000FE15CF91089580910201909103010E9459
:102C9000DC15F7CF0E94D616813079F48091760248
:102CA00087FF0BC0E0910001F091010132968EE1A7
:102CB000DF011D928A95E9F70895E0910201F091F4
:102CC0000301329686E0F4CFDC01FB0111969C9162
:102CD00011978181981322C012968C9112978115B9
:102CE00019F0928189131AC013968C91139781154C
:102CF00019F09381891312C015968C91159781153F
:102D000019F0958189130AC014969C91911521F0B0
:102D100081E02481291303C080E001C081E081703B
:102D2000089508950E94911608958F5F80930F0172
:102D300060910C0170910D0180910E0190910F0135
:102D40000E949216089583E080930F0160910C0118
:102D500070910D0180910E0190910F010E949216C9
:102D600008950E949516089581E080930F01609167
:102D70000C0170910D0180910E0190910F010E9444
:102D8000921608950E94B416089591E0811101C031
:102D900090E090930E0160910C0170910D01809173
:102DA0000E0190910F010E949216089580910E01DC
:102DB000089580930D0160910C0170910D01809137
:102DC0000E0190910F010E949216089580910D01BD
:102DD000089580930C0160910C0170910D01809118
:102DE0000E0190910F010E949216089580910C019E
:102DF0000895089508950E94FA1608950895089573
:102E00000E94F9160895CF930E94FE160E940810A2
:102E10000E94FF16C0E08C2F0E94510F811105C047
:102E2000CF5FC430C1F7CF91089581E0FCCF85B763
:102E3000806885BF85B7806885BF08951F921FB6DB
:102E40001F9211248F939F93AF93BF9380916D0234
:102E5000811113C08091800290918102A091820221
:102E6000B09183024196A11DB11D80938002909381
:102E70008102A0938202B0938302BF91AF919F9190
:102E80008F911F901FBE1F901895809188028430EB
:102E900031F10E94760210926D0288E190E020E408
:102EA0000FB6F894A895809360000FBE2093600041
:102EB00083B7817F846083BF83B7816083BF789449
:102EC000889583B78E7F83BF0FB6F894A8958091BD
:102ED0006000886180936000109260000FBE0895CA
:102EE0000E94F0050E947B02089582E084BD93E079
:102EF00095BD9AEF97BD80936E0008952FB7F89413
:102F00008091800290918102A0918202B09183020F
:102F10002FBF08952FB7F8946091800270918102BD
:102F200080918202909183022FBF08959C014FB738
:102F3000F8948091800290918102A0918202B091D8
:102F400083024FBF821B930B089578941F921FB684
:102F50001F9211248F939F93AF93BF938091800210
:102F600090918102A0918202B09183020196A11DED
:102F7000B11D8093800290938102A0938202B0934E
:102F80008302BF91AF919F918F911F901FBE1F90A1
:102F9000189587E797E7909301088093000888E1E8
:102FA0009AE00FB6F894A895809360000FBE9093B6
:102FB0006000FFCF88E19AE00FB6F894A89580935F
:102FC00060000FBE90936000FFCF282FCB01BA01A5
:102FD000309188023430D9F42F702093E9002FEF1C
:102FE0003091E80035FD06C035ED3A95F1F7000067
:102FF0002A95B1F72091E80025FF09C040E050E094
:103000000E94EC198091E8008E778093E800089583
:10301000BC0143E050E082E00E94E5170895BC0146
:1030200046E050E082E00E94E5170895BC0140E2CE
:1030300050E082E00E94E5170895CF93DF93D82FE8
:10304000C92F0E94D61648E050E06D2F7C2F81E0FA
:103050000E94E51788E0ED2FFC2FAEE6B2E001906C
:103060000D928A95E1F7DF91CF91089580918702C3
:10307000811109C00E94751B0E94D21B8091E20041
:1030800084608093E20008951092870208950E9460
:10309000B41681E00E94C51608956091840281E013
:1030A000611101C080E00E94A316089590918802EA
:1030B00081E0943009F080E0609184020E94B116B2
:1030C000089542E061EC81E00E94F11A42E261EC75
:1030D00082E00E94F11A9091880281E0943009F018
:1030E00080E0609184020E949516089580918A0282
:1030F000893089F148F4823009F4A0C0833009F4A2
:103100005AC0813041F008958A3009F487C08B306D
:1031100009F46CC0089580918902813A09F04AC08F
:103120008091E800877F8093E80080918D029091E4
:103130008E02892B61F060E080E090E070E00E94F8
:103140003C1A8091E8008B778093E800089568E04E
:103150008EE692E0F3CF80918902813259F5809119
:103160008D0290918E02029728F58091E800877F6A
:103170008093E8008091E80082FF18C09091F300EE
:103180008091F200029731F48091F100813011F0CA
:10319000863021F48091F1000E94D9168091E800D8
:1031A0008B778093E8000E94251B08958091880208
:1031B0008111E0CF089580918902813AD9F78091F9
:1031C0008D0290918E02892BA9F78091E800877F6C
:1031D0008093E8008091E80080FFFCCF0E94D61623
:1031E0008093F1008091E8008E77DBCF8091890297
:1031F000813201F780918D0290918E02892BD1F658
:103200008091E800877F8093E8000E94251B8091D1
:103210008B020E94C5160E94F005089580918902D4
:10322000813241F68091E800877F8093E8000E9418
:10323000251B80918C020E94E916089580918902D5
:10324000813A09F0B7CF8091E800877F8093E8004A
:103250008091E80080FFFCCF0E94F616C1CF84B7B2
:10326000877F84BF0FB6F894A8958091600088612D
:1032700080936000109260000FBE80E890E00FB66F
:10328000F89480936100909361000FBE0E94C21673
:1032900008950E94751B0E94D21BE2EEF0E080812F
:1032A0008460808378940E94581E089580E191E0A4
:1032B0000E94DE14089580918802853031F4809157
:1032C0008802853019F00E94701708950E944517F2
:1032D0000E940317811599F380918602811579F375
:1032E0000E94D6190E94F005EACF08959A014091F4
:1032F0008F02509190020E947E190895FC01D9011D
:103300008F2F992783309105C1F068F481309105A2
:1033100009F447C0029761F48BE390E022E331E0C7
:103320002D933C93089581329105E1F0829749F104
:1033300080E090E020E030E0F3CFCF019927E1304A
:1033400059F08230910559F0EEE2F1E0892B81F7D6
:10335000849190E09F01E4CFE0E1F1E0F9CFE4EE69
:10336000F0E0F6CF89E090E024E431E061157105EA
:10337000B9F289E090E02DE531E06130710581F22C
:10338000D7CF84E490E025E332E06115710541F286
:1033900086EB90E02FE731E06130710509F4C0CF92
:1033A000C7CF82E190E02DE631E0BACF80E189BD60
:1033B00082E189BD09B400FEFDCF8091D8008F7DE8
:1033C0008093D8008091E00082608093E00080913B
:1033D000E00081FDFCCF0895AF92BF92CF92DF92C3
:1033E000EF92FF920F931F93CF936C018B017A01A1
:1033F0000E94441BC82F811123C0E114F10439F04D
:10340000F70180819181081B190BC80ED91EA12CD0
:10341000B12C01151105A1F08091E80085FD21C0B6
:103420008091E8008E778093E800E114F10499F030
:10343000F701808191818A0D9B1D91838083C5E076
:103440008C2FCF911F910F91FF90EF90DF90CF9035
:10345000BF90AF9008950E94441B8115E9F2C82FD8
:10346000EFCFF60181916F018093F10001501109B6
:10347000FFEFAF1ABF0ACDCFFC019B0180918F02F5
:10348000909190028617970718F0672B61F0C90199
:1034900040E0009771F441110CC08091E80082FF78
:1034A00035C080E008958091E8008E778093E80031
:1034B000EECF209188022115A9F12530A9F12091A4
:1034C000E80023FD2DC02091E80022FDE6CF2091E9
:1034D000E80020FFDECF3091F3002091F20000974A
:1034E00019F02830310558F041E02830310509F055
:1034F00040E02091E8002E772093E800CACF419168
:103500004093F10001972F5F3F4FE9CF80918802F0
:10351000811541F0853041F08091E80083FFBDCFF7
:1035200081E0089582E0089583E00895FC019B0105
:1035300080918F02909190028617970718F0672B61
:1035400061F0C90140E0009771F441110CC0809115
:10355000E80082FF36C080E008958091E8008E7711
:103560008093E800EECF209188022115B1F125303B
:10357000B1F12091E80023FD2EC02091E80022FD4A
:10358000E6CF2091E80020FFDECF3091F3002091BC
:10359000F200009719F02830310558F041E028304A
:1035A000310509F040E02091E8002E772093E800F3
:1035B000CACF44914093F100319601972F5F3F4F5E
:1035C000E8CF80918802811541F0853041F08091EB
:1035D000E80083FFBCCF81E0089582E0089583E096
:1035E0000895982F973028F08F708093E90081E03C
:1035F00008959093E900242F762F50E0981731F02A
:103600007091EC002091ED005091F00021FD02C07E
:103610009F5FE8CF3091EB003E7F3093EB0030911D
:10362000ED003D7F3093ED003091EB003160309341
:10363000EB007093EC002093ED005093F00020918C
:10364000EE0027FDE5CF80E008958091890287FF95
:1036500013C08091E80082FF06C08091E8008B775C
:103660008093E8000895809188028111F2CF089537
:10367000809188028115D9F38091E80080FFF8CF0E
:103680008091E8008E77ECCF2091E4003091E50046
:1036900095E6A9012091EC00822F817020FF06C0E1
:1036A0008091E80080FF06C080E008952091E80046
:1036B00022FD1AC080918802811589F0853089F039
:1036C0008091EB0085FD0FC02091E4003091E50072
:1036D00042175307F9F29A95E1F684E0089582E0E3
:1036E000089583E0089581E008950E94E41B0E94FC
:1036F000EC1BE0EEF0E0808181608083E8EDF0E09B
:1037000080818F77808319BCA7EDB0E08C918E7F8C
:103710008C9380818F7E80831092870208950F930F
:103720001F93CF93DF930E94E41B0E94EC1BC8ED14
:10373000D0E088818F7788838881806888838881BA
:103740008F7D888319BC1092880210928402109297
:1037500086021092850200EE10E0F80180818B7FD6
:10376000808388818160888342E060E080E00E94FD
:10377000F11AE1EEF0E080818E7F8083E2EEF0E0EE
:10378000808181608083808188608083F80180816E
:103790008E7F8083888180618883DF91CF911F91A4
:1037A0000F910895E8EDF0E080818F7E8083E7ED52
:1037B000F0E080818160808384E082BF81E080933B
:1037C00087020E948F1B0895E8EDF0E080818E7FD4
:1037D00080831092E20008951092DA001092E100C6
:1037E00008951F920F920FB60F9211242F933F93BB
:1037F0004F935F936F937F938F939F93AF93BF93F9
:10380000EF93FF938091E10082FF0BC08091E20073
:1038100082FF07C08091E1008B7F8093E1000E94CE
:10382000571E8091DA0080FF19C08091D80080FF78
:1038300015C08091DA008E7F8093DA008091D900E4
:1038400080FF94C080E189BD82E189BD09B400FE9A
:10385000FDCF81E0809388020E9436188091E100BC
:1038600080FF19C08091E20080FF15C08091E200C6
:103870008E7F8093E2008091E20080618093E2007D
:103880008091D80080628093D80019BC85E0809335
:1038900088020E944D188091E10084FF29C0809128
:1038A000E20084FF25C080E189BD82E189BD09B4C1
:1038B00000FEFDCF8091D8008F7D8093D80080914D
:1038C000E1008F7E8093E1008091E2008F7E809303
:1038D000E2008091E20081608093E20080918402A6
:1038E000811509F449C084E0809388020E9456182B
:1038F0008091E10083FF29C08091E20083FF25C011
:103900008091E100877F8093E10082E080938802CC
:10391000109284028091E1008E7F8093E10080917B
:10392000E2008E7F8093E2008091E20080618093CC
:10393000E20042E060E080E00E94F11A8091F00035
:1039400088608093F0000E944718FF91EF91BF912B
:10395000AF919F918F917F916F915F914F913F9127
:103960002F910F900FBE0F901F90189519BC1092B9
:1039700088020E94441872CF8091E30087FF02C042
:1039800083E0B2CF81E0B0CF1F920F920FB60F92BB
:103990001124EF92FF920F931F932F933F934F9316
:1039A0005F936F937F938F939F93AF93BF93CF93C7
:1039B000EF93FF9309EE10E0F8018081C091EC00D5
:1039C0008F70C795CC27C795C82B108280EFE82E43
:1039D000F12CF7018081877F808378940E940F1DEE
:1039E000F8011082F701808188608083CF70F80130
:1039F000C083FF91EF91CF91BF91AF919F918F9134
:103A00007F916F915F914F913F912F911F910F91F6
:103A1000FF90EF900F900FBE0F901F901895AAE2A5
:103A2000B0E0E5E1FDE10C949A1E89E892E0FC012A
:103A300001962091F100208322E081399207B9F7A5
:103A40000E9476188091E80083FF38C08091890237
:103A500090918A029A3090F5E92FF0E0E757F04E06
:103A60000C94861E803889F0823841F580918D0251
:103A70008F70873018F58093E9008091EB0085FB0B
:103A8000882780F91092E90006C080918602880F8D
:103A900090918502892B9091E800977F9093E800A0
:103AA0008093F1001092F1008091E8008E7723C09E
:103AB000811116C080918B02813011F18091E80054
:103AC00083FF0AC08091E800877F8093E80080919F
:103AD000EB0080628093EB00AA96E4E00C94B61EA3
:103AE000823061F780918B02811589F01092E90094
:103AF0008091E800877F8093E8000E94251BDECF3D
:103B000081E0933009F080E080938602EFCF8091CE
:103B10008D028F702FEF280F263080F68093E900FA
:103B20002091EB0020FFE2CF933031F48091EB0045
:103B300080628093EB00DACF9091EB0090619093DC
:103B4000EB0021E030E0A90102C0440F551F8A9527
:103B5000E2F74093EA001092EA008091EB0088605F
:103B6000E8CF8111ABCF10918B021F778091E300DA
:103B70008078812B8093E3008091E800877F809399
:103B8000E8000E94251B8091E80080FFFCCF809117
:103B9000E30080688093E30083E0111101C082E0BC
:103BA000809388028BCF8058823008F087CF809135
:103BB0008B0290918C028C3D53E0950799F583E040
:103BC0008A838AE289834FB7F894DE01139620E056
:103BD0003EE051E2E32FF0E050935700849120FF44
:103BE00003C082958F703F5F8F708A30C8F0895C08
:103BF00090E08D939D932F5F243161F74FBF8091AB
:103C0000E800877F8093E8006AE270E0CE010196C9
:103C10000E943C1A8091E8008B778093E8004ECF99
:103C2000805DE6CF60918D0270918E02AE014F5F94
:103C30005F4F0E9476198C01892B09F43FCF809148
:103C4000E800877F8093E800B80189819A810E940B
:103C5000961AE0CF803809F031CF8091E800877F55
:103C60008093E800809184028093F1001DCF811140
:103C700025CF90918B02923008F020CF8091E80000
:103C8000877F8093E800909384020E94251B809197
:103C90008402811531F084E0809388020E946118CB
:103CA0000DCF8091E30087FDF6CF81E0F5CF089539
:103CB000CF9380918802811599F08091E900C0919D
:103CC000EC008F70C795CC27C795C82B1092E900E0
:103CD0008091E80083FD0E940F1DCF70C093E90022
:103CE000CF91089597FB072E16F4009407D077FD27
:103CF00009D00E94C31E07FC05D03EF49095819523
:103D00009F4F0895709561957F4F0895EE0FFF1FA7
:103D10000590F491E02D09942F923F924F925F927B
:103D20006F927F928F929F92AF92BF92CF92DF92CB
:103D3000EF92FF920F931F93CF93DF93CDB7DEB730
:103D4000CA1BDB0B0FB6F894DEBF0FBECDBF0994C4
:103D50002A88398848885F846E847D848C849B841B
:103D6000AA84B984C884DF80EE80FD800C811B8129
:103D7000AA81B981CE0FD11D0FB6F894DEBF0FBE58
:103D8000CDBFED010895AA1BBB1B51E107C0AA1FBF
:103D9000BB1FA617B70710F0A61BB70B881F991FEC
:103DA0005A95A9F780959095BC01CD010895FB0126
:103DB000DC0104C08D910190801921F441505040E4
:103DC000C8F7881B990B0895FB01DC0102C0019024
:103DD0000D9241505040D8F70895F999FECF92BD09
:103DE00081BDF89A992780B50895A8E1B0E042E036
:103DF00050E00C94311FDC01A40FB51F415050401E
:103E000048F0CB01840F951F2E910E940C1F41504A
:103E10005040D0F70895262FF999FECF92BD81BD6D
:103E2000F89A019700B4021639F01FBA20BD0FB6F8
:103E3000F894FA9AF99A0FBE08950396272F0E94D4
:103E40000C1F0E940B1F252F0E940C1F242F0C9467
:103E50000C1F0196272F0E940C1F0C940B1FDC01D6
:103E6000CB01FC01F999FECF06C0F2BDE1BDF89A85
:103E7000319600B40D9241505040B8F70895F8942F
:103E8000FFCFE503E5032C042C049104AE041404D5
:103E90001404B3042A053B053B054911BA1151111D
:103EA0001B111F1155112311591165112F11B31138
:103EB0003311691137116D1192113B117111991163
:103EC000411177117F1127115D112B1161114511DE
:103ED0007B118911A211B11115114D11C11160127F
:103EE000661269126F128412841284128412841270
:103EF000841284128412721277127B12811292122F
:103F000098129C12B914BF14A814B314C514CB147E
:103F1000D114321D581D5E1D581D5E1DB11DD31DCF
:063F20005E1D2A1E371E83
:103F26001A023A02280850011E0A14010000010074
:103F3600E6161D1816180F180818E200E900EA0020
:103F4600B500B600B700CD008301CC008A0192010E
:103F560094012102230224022502260227022A02B4
:103F6600B300B4006F0070009F01CB019F02A00256
:103F7600E200E900EA00B500B600B700CD00830113
:103F8600CC008A0192019401210223022402250217
:103F9600260227022A02B300B4006F0070009F01B8
:103FA600CB019F02A0029190946697C634F4F5F671
:023FB600F70012
:00000001FF
